S0190000556C747261736F6E69632073656E736F722E737265632D
S1130000C2C00000D1C00000CFC00000CDC00000BD
S1130010CBC00000C9C00000C7C00000C5C00000BC
S1130020C3C00000C1C00000BFC00000BDC00000CC
S1130030F5C30000B9C00000B7C00000D5C300007C
S1130040B3C00000B1C00000AFC00000ADC00000EC
S1130050ABC00000A9C00000A7C00000A5C00000FC
S1130060A3C00000A1C000009FC000009DC000000C
S11300709BC0000099C0000097C0000095C000001C
S113008093C0000091C000008FC0000000407A10AF
S1130090F35A00A0724E18090010A5D4E80000E835
S11300A07648170000E40B54020000CA9A3B000093
S11300B000E1F505000080969800000040420F0022
S11300C00000A08601000000102700000000E803E3
S11300D0000000006400000000000A0000000000AE
S11300E00100000000002C76D888DC674F0823DF6D
S11300F0C1DFAE59E1B1B796E5E3E453C63AE65140
S1130100997696E8E6C28426EB898C9B62ED407C66
S11301106FFCEFBC9C9F40F2BAA56FA5F490055A02
S11301202AF75C936B6CF9676DC11BFCE0E40D4727
S1130130FEF520E6B500D0ED902E0300943577054A
S11301400080841E080000204E0A000000C80C3302
S11301503333330F986E12831141EF8D2114893B91
S1130160E65516CFFEE6DB18D1844B381BF77C1D11
S1130170901DA4BBE424203284725E228100C9F164
S113018024ECA1E53D2711241FBECFEFD0E4DEBF50
S1130190CDBF21E0A0E0B1E001C01D92A731B207BC
S11301A0E1F707D40C94CE092BCFCF93DF93CDB7CF
S11301B0DEB781E01AD00000DF91CF910895CF938C
S11301C0DF93CDB7DEB784E690E0ACD088E30DD002
S11301D086E00BD08FE009D081E007D08AE090E080
S11301E0A1D00000DF91CF910895CF93DF931F92A8
S11301F0CDB7DEB789838BE290E02BE230E0F901E2
S113020020812F7DFC01208388E290E02981FC017C
S113021020838BE290E02BE230E0F901208120681A
S1130220FC01208300008BE290E02BE230E0F90136
S113023020812F77FC01208382E090E073D00000BE
S11302400F90DF91CF910895CF93DF931F92CDB795
S1130250DEB789838BE290E02BE230E0F901208164
S11302602062FC01208388E290E02981FC01208344
S11302708BE290E02BE230E0F90120812068FC0160
S1130280208300008BE290E02BE230E0F901208132
S11302902F77FC01208381E090E044D000000F9090
S11302A0DF91CF910895CF93DF9300D000D0CDB7E5
S11302B0DEB78A837C836B8378DF8A8189830FC06E
S11302C0898191E0980F998318D08B819C819C013E
S11302D02F5F3F4F3C832B83FC018081B5DF8B81F3
S11302E09C81FC018081882359F700000F900F90B6
S11302F00F900F90DF91CF910895CF93DF931F92CA
S1130300CDB7DEB789838981813120F48981815811
S11303106CDF03C08981815568DF00000F90DF9195
S1130320CF910895CF93DF9300D000D000D0CDB704
S1130330DEB79E838D831A82198213C01C821B82AE
S113034006C000008B819C8101969C838B838B81EA
S11303509C8187309340ACF389819A8101969A837A
S1130360898329813A818D819E812817390734F345
S1130370000026960FB6F894DEBF0FBECDBFDF9106
S1130380CF910895CF93DF9300D01F92CDB7DEB7FE
S113039089836A834B838B81882371F08A81282F18
S11303A030E081E090E002C0880F991F2A95E2F7BF
S11303B0982F8981892B0EC08A81282F30E081E013
S11303C090E002C0880F991F2A95E2F7982F909524
S11303D0898189230F900F900F90DF91CF91089519
S11303E0CF93DF93CDB7DEB781E890E022E4FC0140
S11303F020838FE690E021E2FC0120830000DF915E
S1130400CF910895CF93DF93CDB7DEB7C054D10910
S11304100FB6F894DEBF0FBECDBF82E290E0FC01C0
S1130420108280E090E0A0E0B0E489839A83AB83FB
S1130430BC832BEA3AEA4AEA5EE369817A818B81DA
S11304409C81BAD4DC01CB018DA39EA3AFA3B8A732
S113045020E030E040E85EE369817A818B819C8111
S1130460ABD4DC01CB0189A79AA7ABA7BCA720E03A
S113047030E040E85FE36DA17EA18FA198A54ED343
S113048088231CF481E08DA7A7C020E03FEF4FE74D
S113049057E469A57AA58BA59CA58AD418160CF0F7
S11304A074C020E030E04AE754E469817A818B81AA
S11304B09C8138D3DC01CB018EA79FA7A8ABB9AB35
S11304C020E030E04AE753E46EA57FA588A999A906
S11304D073D4DC01CB018AAB9BABACABBDAB20E0EE
S11304E030E040E85FE36AA97BA98CA99DA916D3F3
S11304F088232CF481E090E09FAB8EAB3BC020E0DE
S11305003FEF4FE757E46AA97BA98CA99DA950D472
S113051018163CF520E030E040E251E46EA57FA5DA
S113052088A999A949D4DC01CB01BC01CD0162D3CE
S1130530DC01CB019FAB8EAB0FC089E190E099AF9A
S113054088AF88AD99AD0197F1F799AF88AF8EA9BF
S11305509FA901979FAB8EAB8EA99FA9892B69F7A1
S11305603BC06AA97BA98CA99DA944D3DC01CB011A
S11305709FAB8EAB8EA99FA99BAF8AAF8AAD9BAD73
S11305800197F1F79BAF8AAF27C020E030E04FE737
S113059053E46DA17EA18FA198A50AD41816A4F4E2
S11305A069A57AA58BA59CA525D3DC01CB019DAFBC
S11305B08CAF8CAD9DAD9FAF8EAF8EAD9FAD0197CF
S11305C0F1F79FAF8EAF1BC06DA17EA18FA198A53F
S11305D011D3DC01CB018DA72DA5CE01805C9F4FEB
S11305E0FC012083CE01805C9F4FFC018081282F79
S11305F02A95F1F7CE01805C9F4FFC01208382E2B3
S113060090E021E0FC01208380E090E0A0E2B1E4EE
S11306108D839E83AF83B8872BEA3AEA4AEA5EE386
S11306206D817E818F819885C7D3DC01CB01898759
S11306309A87AB87BC8720E030E040E85EE36D81B9
S11306407E818F819885B8D3DC01CB018D879E870D
S1130650AF87B88B20E030E040E85FE369857A85B6
S11306608B859C855BD288231CF481E0898BA7C091
S113067020E03FEF4FE757E46D857E858F859889AD
S113068097D318160CF074C020E030E04AE754E425
S11306906D817E818F81988545D2DC01CB018A8B67
S11306A09B8BAC8BBD8B20E030E04AE753E46A8936
S11306B07B898C899D8980D3DC01CB018E8B9F8BB8
S11306C0A88FB98F20E030E040E85FE36E897F892E
S11306D0888D998D23D288232CF481E090E09B8F20
S11306E08A8F3BC020E03FEF4FE757E46E897F8954
S11306F0888D998D5DD318163CF520E030E040E2FA
S113070051E46A897B898C899D8956D3DC01CB01AC
S1130710BC01CD016FD2DC01CB019B8F8A8F0FC04E
S113072089E190E09D8F8C8F8C8D9D8D0197F1F7E1
S11307309D8F8C8F8A8D9B8D01979B8F8A8F8A8D3D
S11307409B8D892B69F73BC06E897F89888D998D34
S113075051D2DC01CB019B8F8A8F8A8D9B8D9F8F19
S11307608E8F8E8D9F8D0197F1F79F8F8E8F27C06F
S113077020E030E04FE753E469857A858B859C85DA
S113078017D31816A4F46D857E858F85988932D287
S1130790DC01CB0199A388A388A199A19BA38AA377
S11307A08AA19BA10197F1F79BA38AA30EC0698537
S11307B07A858B859C851ED2DC01CB01898B898946
S11307C08CA38CA18A95F1F78CA382E290E0FC01C2
S11307D010820000C05CDF4F0FB6F894DEBF0FBE7E
S11307E0CDBFDF91CF9108951F920F9200905F00CB
S11307F00F9211248F93CF93DF93CDB7DEB78091FF
S113080000018F5F809300010000DF91CF918F91F1
S11308100F9000925F000F901F9018951F920F92F7
S113082000905F000F92112400905B000F92EF92F2
S1130830FF920F931F932F933F934F935F936F9365
S11308407F938F939F93AF93BF93EF93FF93CF9334
S1130850DF93CDB7DEB789E290E0FC018081882F79
S113086090E080749927892BB9F086E890E0FC0128
S113087080819181909316018093150101E810E025
S113088081E890E0FC01808140E066E07BDDF801D6
S113089080831092000171C086E890E0FC018081A1
S11308A0918190930C0180930B0101E810E081E8A1
S11308B090E0FC01808141E066E064DDF801808322
S11308C080910B0190910C019C0140E050E08091DB
S11308D0150190911601CC01A0E0B0E079018A01E4
S11308E0E81AF90A0A0B1B0B80910001882F90E08B
S11308F0A0E0B0E0880F991FAA1FBB1F880F991FA3
S1130900AA1FBB1F880F991FAA1FBB1F880F991FFF
S1130910AA1FBB1F28EE33E040E050E0BC01CD012C
S1130920AED2DA01C9018E0D9F1DA01FB11F8093A5
S11309300D0190930E01A0930F01B09310018091CB
S11309400D0190910E01A0910F01B0911001BC0115
S1130950CD017CD1DC01CB0126E933E44BE85CE337
S1130960BC01CD0129D2DC01CB018093110190930C
S11309701201A0931301B09314010000DF91CF91F1
S1130980FF91EF91BF91AF919F918F917F916F9163
S11309905F914F913F912F911F910F91FF90EF9095
S11309A00F9000925B000F9000925F000F901F90D9
S11309B018950F931F93CF93DF93CDB7DEB72E9780
S11309C00FB6F894DEBF0FBECDBF81E290E02FEFEB
S11309D0FC01208382E290E0FC01108284E290E03A
S11309E02FEFFC01208385E290E0FC01108287E276
S11309F090E02FEFFC01208388E290E0FC0110825C
S1130A008AE290E02FEBFC0120838BE290E020E46B
S1130A10FC012083D4DBE4DC7894F4DC80911101C4
S1130A2090911201A0911301B091140101E011E021
S1130A3022E043E0BC01CD0144D261E071E081E0F9
S1130A4032DC80E090E0AAE7B4E489839A83AB8344
S1130A50BC8320E030E04AE753E469817A818B81EA
S1130A609C81AAD1DC01CB018D839E83AF83B8879F
S1130A7020E030E040E85FE36D817E818F819885DE
S1130A804DD088232CF481E090E09A8789873BC07D
S1130A9020E03FEF4FE757E46D817E818F81988599
S1130AA087D118163CF520E030E040E251E469813A
S1130AB07A818B819C8180D1DC01CB01BC01CD0189
S1130AC099D0DC01CB019A8789870FC089E190E036
S1130AD09C878B878B859C850197F1F79C878B87F7
S1130AE089859A8501979A87898789859A85892B2B
S1130AF069F713C06D817E818F8198857BD0DC017D
S1130B00CB019A87898789859A859E878D878D856C
S1130B109E850197F1F79E878D877FCFD4D008F407
S1130B2081E008950CD00AC102D140F0F9D030F030
S1130B3021F45F3F19F0EBC0511134C1EEC00FD165
S1130B4098F39923C9F35523B1F3951B550BBB2790
S1130B50AA2762177307840738F09F5F5F4F220F3D
S1130B60331F441FAA1FA9F333D00E2E3AF0E0E836
S1130B7030D091505040E695001CCAF729D0FE2F82
S1130B8027D0660F771F881FBB1F26173707480714
S1130B90AB07B0E809F0BB0B802DBF01FF279358CA
S1130BA05F4F2AF09E3F510568F0B1C0FBC05F3F24
S1130BB0ECF3983EDCF3869577956795B795F795B2
S1130BC09F5FC9F7880F911D9695879597F90895AA
S1130BD0E1E0660F771F881FBB1F62177307840746
S1130BE0BA0720F0621B730B840BBA0BEE1F88F755
S1130BF0E0950895BCD088F09F5790F0B92F9927BD
S1130C00B751A0F0D1F0660F771F881F991F1AF013
S1130C10BA95C9F712C0B13081F0C3D0B1E00895DC
S1130C20C0C0672F782F8827B85F39F0B93FCCF35D
S1130C30869577956795B395D9F73EF49095809509
S1130C40709561957F4F8F4F9F4F0895E89409C029
S1130C5097FB3EF490958095709561957F4F8F4FEB
S1130C609F4F9923A9F0F92F96E9BB279395F69501
S1130C70879577956795B795F111F8CFFAF4BB0F7F
S1130C8011F460FF1BC06F5F7F4F8F4F9F4F16C0E3
S1130C90882311F096E911C0772321F09EE8872F6D
S1130CA0762F05C0662371F096E8862F70E060E029
S1130CB02AF09A95660F771F881FDAF7880F9695A2
S1130CC0879597F90895990F0008550FAA0BE0E846
S1130CD0FEEF16161706E807F907C0F012161306FA
S1130CE0E407F50798F0621B730B840B950B39F43A
S1130CF00A2661F0232B242B252B21F408950A26A0
S1130D0009F4A140A6958FEF811D811D089597F9DF
S1130D109F6780E870E060E008959FEF80EC08959D
S1130D2000240A94161617061806090608950024C6
S1130D300A9412161306140605060895092E039440
S1130D40000C11F4882352F0BB0F40F4BF2B11F4B4
S1130D5060FF04C06F5F7F4F8F4F9F4F089557FD13
S1130D609058440F551F59F05F3F71F04795880F15
S1130D7097FB991F61F09F3F79F0879508951216AC
S1130D8013061406551FF2CF4695F1DF08C0161658
S1130D9017061806991FF1CF869571056105089409
S1130DA00895E894BB2766277727CB0197F9089520
S1130DB08ADF08F48FEF08950BD0C0CFB1DF28F09D
S1130DC0B6DF18F0952309F0A2CFA7CF1124EACFFC
S1130DD0C6DFA0F3959FD1F3950F50E0551F629F96
S1130DE0F001729FBB27F00DB11D639FAA27F00D80
S1130DF0B11DAA1F649F6627B00DA11D661F829FA7
S1130E002227B00DA11D621F739FB00DA11D621F8B
S1130E10839FA00D611D221F749F3327A00D611DA8
S1130E20231F849F600D211D822F762F6A2F11248A
S1130E309F5750408AF0E1F088234AF0EE0FFF1FDD
S1130E40BB1F661F771F881F91505040A9F79E3F14
S1130E50510570F05CCFA6CF5F3FECF3983EDCF316
S1130E60869577956795B795F795E7959F5FC1F751
S1130E70FE2B880F911D9695879597F90895A1E209
S1130E801A2EAA1BBB1BFD010DC0AA1FBB1FEE1F00
S1130E90FF1FA217B307E407F50720F0A21BB30B4B
S1130EA0E40BF50B661F771F881F991F1A9469F7C7
S1130EB060957095809590959B01AC01BD01CF0123
S1130EC00895EF920F931F93CF93DF93E80147FDAB
S1130ED002C034E001C034E1042E000C550B57FF6E
S1130EE003C0519541955109E32E022F242FAE01E1
S1130EF007D0CE01DF91CF911F910F91EF9008950C
S1130F008F929F92AF92BF92CF92DF92EF92FF9215
S1130F100F931F93CF93DF93CDB7DEB729970FB607
S1130F20F894DEBF0FBECDBF6A01122FB02E2BE3A3
S1130F30201720F0FF24F394F00E02C02CE3F22ECD
S1130F400F2D27E0AE014F5F5F4F50D1BC014981A7
S1130F50842F8970813031F0E1FC06C0E0FE06C0C8
S1130F6090E205C09DE203C09BE201C090E05E2DCB
S1130F70507143FF3CC0911102C083E001C084E082
S1130F80811718F4212F281B01C020E051110BC038
S1130F90F601822F30E2882319F031938150FBCF80
S1130FA0C20ED11C20E0992329F0D6019C93F601AE
S1130FB031966F01C6010396E2FE0AC03EE4D601F3
S1130FC03C9341E411964C93119712963C9306C0BE
S1130FD03EE6F601308341E641833283FC01322F41
S1130FE040E2332309F442C041933150FACF42FF27
S1130FF044C0911102C083E001C084E0811718F459
S1131000212F281B01C020E051110BC0F601822FB3
S113101030E2882319F031938150FBCFC20ED11CEA
S113102020E0992329F0D6019C93F60131966F01B3
S1131030C6010396E2FE0BC039E4D6013C933EE4BC
S113104011963C93119736E412963C9307C039E607
S1131050F60130833EE6318336E63283FC01322FDB
S113106040E2332319F041933150FBCFFC01E20FEE
S1131070F11D10828EEF9FEFA6C021E030E09111A8
S113108002C020E030E0161617061CF4FB0131966E
S113109002C0E1E0F0E02E0F3F1FBB2021F0EB2D5A
S11310A0F0E0319602C0E0E0F0E02E0F3F1FE12FA8
S11310B0F0E02E173F071CF4121B212F01C020E083
S11310C08E2D887159F4F601822F30E2882319F0AD
S11310D031938150FBCFC20ED11C20E0992329F01B
S11310E0D6019C93F60131966F0151110BC0F601A4
S11310F0822F90E3882319F091938150FBCFC20E85
S1131100D11C20E00F2D060F9A81342F307144FF3B
S113111003C0913309F40150101624F4093018F077
S113112008E001C001E0AB0177FF02C040E050E0FD
S1131130FB01E41BF50BA1E0B0E0AC0FBD1FEA0F0F
S1131140FB1F8EE2A82E4B01801A91080B2D10E094
S11311501195019511094F3FBFEF5B0721F4D601AB
S1131160AC9211966D01641775072CF084169506E0
S113117014F4818101C080E3415051093196D601B4
S113118011967D014017510724F0D6018C93670115
S1131190E2CF6417750739F4963320F4953319F4C4
S11311A0311101C081E3F6018083F701822F90E2BF
S11311B0882319F091938150FBCFF701E20FF11DC1
S11311C0108280E090E029960FB6F894DEBF0FBE3F
S11311D0CDBFDF91CF911F910F91FF90EF90DF90E2
S11311E0CF90BF90AF909F908F900895283008F0D3
S11311F027E03327DA01990F311D87FD91600096AE
S11312006105710539F432602E5F3D9330E32A9510
S1131210E1F708959F3F30F080387105610509F0CA
S11312203C5F3C5F3D93913008F08068911DDF93F3
S1131230CF931F930F93FF92EF92192F987F969558
S1131240E92F96959695E90FFF27EA51FF4F9927C5
S11312503327EE24FF24A701E7010590089407949F
S113126028F4360FE71EF81E491F511D660F771F1D
S1131270881F991F0694A1F70590079428F4E70E98
S1131280F81E491F561FC11D770F881F991F661F1F
S11312900694A1F70590079428F4F80E491F561FE9
S11312A0C71FD11D880F991F661F771F0694A1F7CA
S11312B00590079420F4490F561FC71FD81F990F94
S11312C0661F771F881F0694A9F7849110951770DD
S11312D041F0D695C79557954795F794E7941A9595
S11312E0C1F7ECE8F0E0689415901591359165919B
S11312F0959105907FE27395E118F10A430B560B23
S1131300C90BD009C0F7E10CF11E431F561FC91FBA
S1131310D01D7EF4703311F48A95E6CFE894015021
S113132030F0080F0AF40027021708F4202F239541
S1131330022F7A3328F079E37D932A95E9F710C0D8
S11313407D932A9589F60694979567953795179511
S11313501794E118F10A430B560BC90BD00998F006
S113136023957E9173957A3308F070E37C93201370
S1131370B8F77E9170617D9330F0839571E37D932E
S113138070E32A95E1F71124EF90FF900F911F91DC
S1131390CF91DF91992787FD90950895F894FFCF19
S9030000FC
