S0100000747261736863616E2E73726563C0
S113000045C0000060C000005EC000005CC000008D
S11300105AC0000058C0000056C0000054C0000080
S113002052C0000050C000004EC000004CC0000090
S11300304AC0000072C1000046C0000044C0000075
S113004042C0000040C000003EC000003CC00000B0
S11300503AC0000038C0000036C0000034C00000C0
S113006032C0000030C000002EC000002CC00000D0
S11300702AC0000028C0000026C0000024C00000E0
S113008022C0000020C000001EC0000011241FBEBA
S1130090CFEFD0E4DEBFCDBF11E0A0E0B1E0EEE8E9
S11300A0FBE000E00BBF02C007900D92A031B10746
S11300B0D9F721E0A0E1B1E001C01D92A335B20758
S11300C0E1F767D162C59CCF009719F0019731F031
S11300D009C04E9B07C04E9924C004C04E9B02C069
S11300E089B11FC08091450190914601A0914701BB
S11300F0B09148010097A105B10549F180934101F0
S113010090934201A0934301B0934401109245019E
S113011010924601109247011092480180E090E04D
S113012008958091450190914601A0914701B091B5
S113013048010196A11DB11D80934501909346018C
S1130140A0934701B093480181E090E0089580E0D6
S113015090E00895029718F080E090E0089581E01F
S113016090E008958230910510F4009759F412B884
S113017000C081E082B983E08A95F1F7000012B8EB
S113018080E090E00895181619065CF008950000C8
S113019021503109E1F74F5F5F4F8417950719F438
S11301A0089540E050E027E033E0F1CF5D9888B94E
S11301B05F9A00005F9882E090E0E5CF089581E0C7
S11301C0F5CF0895813118F48158F0CF0895815501
S11301D0EDCF089584E690E0D6DF88E3E7DF86E09C
S11301E0E5DF8FE0E3DF81E0E1DF8AE090E0CBCF81
S11301F008955D9A88B95F9A00005F9881E090E065
S1130200C2CF08950F931F93CF93DF93182FEB0161
S1130210D6DF8881882351F001E0010F812FD2DFDE
S11302208991E7DF102F88818111F6CFDF91CF917B
S11302301F910F9108950297A8F580914101909123
S11302404201A0914301B0914401B695A7959795B9
S11302508795BF93AF939F938F938CE091E09F9387
S11302608F9389E491E09F938F93B4D18DB79EB718
S113027008960FB6F8949EBF0FBE8DBF80914101C2
S113028090914201A0914301B0914401892B8A2BA2
S11302908B2B59F069E471E081E090E0B3DF80E0FA
S11302A090E0089581E090E0089580E090E0089562
S11302B06093000170930101809302019093030104
S11302C060933C0170933D0180933E0190933F0104
S11302D0089589E0809381008BEE90E090938900EB
S11302E08093880082E080936F00109285001092C2
S11302F084008091000190910101A0910201B091CC
S1130300030180933C0190933D01A0933E01B0937F
S11303103F018FB780688FBF08951F920F920FB669
S11303200F9211248F939F93AF93BF9380913C01BD
S113033090913D01A0913E01B0913F010197A10927
S1130340B10980933C0190933D01A0933E01B09389
S11303503F01892B8A2B8B2B99F481E080934001F8
S11303608091000190910101A0910201B0910301DB
S113037080933C0190933D01A0933E01B0933F01D3
S1130380BF91AF919F918F910F900FBE0F901F90CF
S11303901895CF93DF93CDB7DEB728970FB6F894AF
S11303A0DEBF0FBECDBF8FEF81B912B814B885B9C7
S11303B087B918B88FEB8AB980E48BB90F2EF8E8A7
S11303C0DF2EF02D0F2EF3E1CF2EF02DB12CA12C2A
S11303D051E040E030E020E004C0D62EC72EB82E15
S11303E0A92E652F742F832F922F2D2D3C2D4B2D4D
S11303F05A2DCED05D2D4C2D3B2D2A2D6115710526
S11304008105910551F70F2EF8E8EF2EF02D0F2EF0
S1130410F3E1FF2EF02D00E010E004C0E62EF72EED
S1130420082F192F6D2D7C2D8B2D9A2D2E2D3F2DC0
S1130430402F512FADD0DE2CCF2CB02EA12E611524
S113044071058105910551F761E070E080E090E06D
S11304502E2D3F2D402F512F9BD049015A0168E882
S113046073E180E090E02E2D3F2D402F512F90D04E
S113047088E0E4E0F1E0DE01119601900D928A95A6
S1130480E1F7E1E3F1E06FEF608381829282A3827E
S1130490B48285829682A782B08682EB90E09287AE
S11304A08187E6E2F1E0608381829282A382B48252
S11304B085829682A782B08684E690E092878187BF
S11304C0EBE1F1E06083218332834383548325830A
S11304D03683478350878BE191E092878187E0E1FF
S11304E0F1E06083218332834383548325833683FD
S11304F0478350878AEA90E0928781876E2D7F2D0B
S1130500802F912FD5DEE5DE65DE7E0189E0E80EE1
S1130510F11CDE0111966D01F601019111916F013B
S1130520D80115964D915D916D917C911897119616
S11305308D919D910D90BC91A02D481759076A0784
S11305407B0781F4F80180810184F285E02D082E77
S1130550000C990B0995D8018C93F8011582168229
S113056017821086F80185819681A781B08501964E
S1130570A11DB11D85839683A783B087CE14DF04A4
S113058059F6809140018823E1F310924001C1CFD4
S1130590A1E21A2EAA1BBB1BFD010DC0AA1FBB1F83
S11305A0EE1FFF1FA217B307E407F50720F0A21BF5
S11305B0B30BE40BF50B661F771F881F991F1A9462
S11305C069F760957095809590959B01AC01BD018C
S11305D0CF0108950F931F93CF93DF93CDB7DEB769
S11305E02E970FB6F894DEBF0FBECDBF0D891E89BE
S11305F086E08C831A8309838FEF9FE79E838D8324
S1130600AE01475E5F4F6F89788DCE01019610D0A1
S1130610EF81F885E00FF11F10822E960FB6F89443
S1130620DEBF0FBECDBFDF91CF911F910F91089513
S11306302F923F924F925F926F927F928F929F92EE
S1130640AF92BF92CF92DF92EF92FF920F931F93DC
S1130650CF93DF93CDB7DEB72B970FB6F894DEBFF9
S11306600FBECDBF6C017B018A01FC01178216828B
S1130670838181FFBFC1CE0101963C01F6019381C4
S1130680F70193FD859193FF81917F01882309F4FC
S1130690ADC1853239F493FD859193FF81917F013A
S11306A0853221F4B60190E0D6D1E8CF912C212CEB
S11306B0312CFFE1F315D8F08B3279F038F4803225
S11306C079F08332A1F4232D20611DC08D3261F0B5
S11306D0803369F4232D216016C0832D8260382E67
S11306E0E32DE4603E2E2AC0F32DF8601DC037FCD4
S11306F02DC020ED280F2A3040F08E32B9F436FC9C
S113070075C1232D2064322E19C036FE06C08AE03E
S1130710989E200D1124922E11C0EAE02E9E200DE9
S11307201124222EF32DF0623F2E08C08C3621F4C2
S1130730832D8068382E02C0883641F4F70193FD7A
S1130740859193FF81917F018111B3CF982F9F7D74
S11307509554933028F40C5F1F4F9FE399830DC089
S1130760833631F0833771F0833509F055C020C0EA
S1130770F801808189830E5F1F4F88248394912C14
S1130780530112C02801F2E04F0E511CF801A08061
S1130790B18036FE03C0692D70E002C06FEF7FEFB9
S11307A0C5014ED14C018201F32DFF773F2E15C0B8
S11307B0280122E0420E511CF801A080B18036FECF
S11307C003C0692D70E002C06FEF7FEFC5012DD12A
S11307D04C01F32DF0683F2E820133FC19C0822DA9
S11307E090E088169906A0F4B60180E290E033D137
S11307F02A94F5CFF50137FC859137FE81915F018D
S1130800B60190E028D121102A9421E0821A91089F
S11308108114910479F7E1C0843611F0893639F5F1
S1130820F80137FE07C060817181828193810C5F7A
S11308301F4F08C060817181072E000C880B990B33
S11308400E5F1F4FF32DFF763F2E97FF09C0909543
S11308508095709561957F4F8F4F9F4FF0683F2E25
S11308602AE030E0A30133D1882E861844C08537AE
S113087031F4232D2F7EB22E2AE030E025C0932DB3
S1130880997FB92E8F36C1F018F4883579F0AEC04F
S1130890803719F0883721F0A9C0E92FE061BE2E16
S11308A0B4FE0DC0FB2DF460BF2E09C034FE0AC097
S11308B0292F2660B22E06C028E030E005C020E1D2
S11308C030E002C020E132E0F801B7FE07C06081E9
S11308D07181828193810C5F1F4F06C06081718199
S11308E080E090E00E5F1F4FA301F1D0882E8618A0
S11308F0FB2DFF773F2E36FE0DC0232D2E7FA22E1B
S1130900891458F434FE0BC032FC09C0832D8E7E4A
S1130910A82E05C0B82CA32C03C0B82C01C0B92C38
S1130920A4FE0FC0FE01E80DF11D8081803321F487
S11309309A2D997EA92E09C0A2FE06C0B394B39441
S113094004C08A2D867809F0B394A3FC10C0A0FEDD
S113095006C0B21480F4280C922C9B180DC0B2145B
S113096058F4B60180E290E076D0B394F8CFB21494
S113097018F42B1802C0982C212CA4FE0FC0B60129
S113098080E390E068D0A2FE16C0A1FC03C088E713
S113099090E002C088E590E0B6010CC08A2D86780C
S11309A051F0A1FE02C08BE201C080E2A7FC8DE2FF
S11309B0B60190E050D0891430F4B60180E390E0A1
S11309C04AD09A94F8CF8A94F301E80DF11D8081FE
S11309D0B60190E040D08110F6CF222009F44ECE2B
S11309E0B60180E290E037D02A94F7CFF6018681F1
S11309F0978102C08FEF9FEF2B960FB6F894DEBF5E
S1130A000FBECDBFDF91CF911F910F91FF90EF905B
S1130A10DF90CF90BF90AF909F908F907F906F901A
S1130A205F904F903F902F900895FC010590615086
S1130A3070400110D8F7809590958E0F9F1F0895F0
S1130A40FC016150704001900110D8F78095909599
S1130A508E0F9F1F08950F931F93CF93DF93FB0176
S1130A60238121FD03C08FEF9FEF2CC022FF16C00E
S1130A7046815781248135814217530744F4A0816C
S1130A80B1819D012F5F3F4F318320838C93268159
S1130A9037812F5F3F4F3783268314C08B01EC01CE
S1130AA0FB010084F185E02D0995892BE1F6D8013D
S1130AB016968D919C911797019617969C938E93F9
S1130AC01697CE01DF91CF911F910F910895FA01EE
S1130AD0AA27283051F1203181F1E8946F936E7F79
S1130AE06E5F7F4F8F4F9F4FAF4FB1E03ED0B4E06A
S1130AF03CD0670F781F891F9A1FA11D680F791FAB
S1130B008A1F911DA11D6A0F711D811D911DA11DBB
S1130B1020D009F468943F912AE0269F11243019CB
S1130B20305D3193DEF6CF010895462F4770405D66
S1130B304193B3E00FD0C9F7F6CF462F4F70405D15
S1130B404A3318F0495D31FD4052419302D0A9F770
S1130B50EACFB4E0A6959795879577956795BA956A
S1130B60C9F700976105710508959B01AC010A2E30
S1130B7006945795479537952795BA95C9F7620F07
S1110B80731F841F951FA01D0895F894FFCFC6
S1130B8E01000000310126011B0110012564000043
S9030000FC
